:100000000C9438000C944D000C944D000C944D0051
:100010000C944D000C944D000C944D000C944D002C
:100020000C944D000C944D000C944D000C944D001C
:100030000C944D000C944D000C944D000C944D000C
:100040000C944D000C944D000C944D000C944D00FC
:100050000C944D000C944D000C944D000C944D00EC
:100060000C944D000C944D000C944D000C944D00DC
:1000700011241FBECFEFD4E0DEBFCDBF11E0A0E062
:10008000B1E0E4EFF5E002C005900D92A031B107B8
:10009000D9F70E9412010C94F8020C94000081B36D
:1000A000806281BB82E88FBD89E18EBD80E49CE9DE
:1000B00095BD84BD0895CF92DF92EF92FF92682F95
:1000C00070E080E090E00E94FF0120E030E048EC2A
:1000D00052E40E945C016B017C0164B575B580E05F
:1000E00090E00E94FD01A70196010E948B020E94F0
:1000F000CE017BBD6ABDFF90EF90DF90CF90089559
:10010000893191055CF485B3807F826085BB85B3BE
:100110008F7085BB84E10E945B00089549974097EA
:1001200058F485B3807F856085BB85B38F7085BBB0
:1001300082E30E945B00089585B3807F896085BB60
:1001400085B38F70806985BB84E60E945B0008954B
:100150008FE08ABB8FEF8BBB089530E035C0E32F73
:10016000F0E040E150E0032E02C0440F551F0A9416
:10017000E2F74ABB8BB3942F909589238BBB89EF11
:1001800090E00197F1F700C0000020E017C089B3AC
:10019000622F70E090E0022E02C0959587950A9438
:1001A000E2F780FD0AC0660F771F660F771F605069
:1001B0007F4FE60FF71F808108952F5F243038F3BB
:1001C0008BB3482B4BBB3F5F343048F280E008953F
:1001D000805391E08A3008F090E0892F90E00895F4
:1001E00090E0C09708952FE38DE093E02150804088
:1001F0009040E1F700C0000018BA80E00E945B0068
:1002000015BA0895CF93829B0E94F3000E94AD001F
:10021000C82F8823C1F30E94E800892BA1F38C2FFB
:10022000CF9108950E94A8008FEF87BB84BB0E94E6
:100230004F000E940201C8B30E94F000D82F192F6E
:100240008C2F807F9D2F9F70892B88BB2FE936E8EC
:1002500041E0215030404040E1F700C00000829B67
:100260000E94F3000E9402018823C9F3C8B30E94D0
:10027000F0009C0122953295307F3227207F322773
:10028000CF702C2B28BB2FE936E841E021503040BD
:100290004040E1F700C000002D2F312F220F331F07
:1002A000A901440F551F440F551F240F351F820FFE
:1002B000931F0E948000BDCF0E9470010C945102D8
:1002C0000E944A0258F00E94430240F029F45F3F26
:1002D00029F00C943A0251110C9485020C944002BE
:1002E0000E94620268F39923B1F3552391F3951BA1
:1002F000550BBB27AA2762177307840738F09F5F47
:100300005F4F220F331F441FAA1FA9F335D00E2EB3
:100310003AF0E0E832D091505040E695001CCAF720
:100320002BD0FE2F29D0660F771F881FBB1F2617E3
:1003300037074807AB07B0E809F0BB0B802DBF01BA
:10034000FF2793585F4F3AF09E3F510578F00C9489
:100350003A020C9485025F3FE4F3983ED4F386950D
:1003600077956795B795F7959F5FC9F7880F911DAA
:100370009695879597F90895E1E0660F771F881F96
:10038000BB1F621773078407BA0720F0621B730B49
:10039000840BBA0BEE1F88F7E09508950E946A025D
:1003A00088F09F5798F0B92F9927B751B0F0E1F036
:1003B000660F771F881F991F1AF0BA95C9F714C0E6
:1003C000B13091F00E948402B1E008950C9484024F
:1003D000672F782F8827B85F39F0B93FCCF386951F
:1003E00077956795B395D9F73EF49095809570957C
:1003F00061957F4F8F4F9F4F0895E89409C097FBF9
:100400003EF490958095709561957F4F8F4F9F4FEB
:100410009923A9F0F92F96E9BB279395F69587952F
:1004200077956795B795F111F8CFFAF4BB0F11F4F2
:1004300060FF1BC06F5F7F4F8F4F9F4F16C0882399
:1004400011F096E911C0772321F09EE8872F762FCF
:1004500005C0662371F096E8862F70E060E02AF010
:100460009A95660F771F881FDAF7880F96958795FC
:1004700097F9089597F99F6780E870E060E0089524
:100480009FEF80EC089500240A94161617061806AC
:100490000906089500240A94121613061406050688
:1004A0000895092E0394000C11F4882352F0BB0F19
:1004B00040F4BF2B11F460FF04C06F5F7F4F8F4F7C
:1004C0009F4F089557FD9058440F551F59F05F3FB7
:1004D00071F04795880F97FB991F61F09F3F79F066
:1004E00087950895121613061406551FF2CF4695E8
:1004F000F1DF08C0161617061806991FF1CF86956A
:100500007105610508940895E894BB27662777274D
:10051000CB0197F908950E949E020C9451020E940B
:10052000430238F00E944A0220F0952311F00C9407
:100530003A020C94400211240C9485020E9462023B
:1005400070F3959FC1F3950F50E0551F629FF00126
:10055000729FBB27F00DB11D639FAA27F00DB11D3F
:10056000AA1F649F6627B00DA11D661F829F2227C8
:10057000B00DA11D621F739FB00DA11D621F839F4F
:10058000A00D611D221F749F3327A00D611D231F25
:10059000849F600D211D822F762F6A2F11249F5773
:1005A00050409AF0F1F088234AF0EE0FFF1FBB1F76
:1005B000661F771F881F91505040A9F79E3F510535
:1005C00080F00C943A020C9485025F3FE4F3983E6D
:1005D000D4F3869577956795B795F795E7959F5FDF
:1005E000C1F7FE2B880F911D9695879597F9089571
:0405F000F894FFCFAD
:1005F4003738394134353642313233432A30234493
:00000001FF
